:020000040800F2
:10000000A8090020B90100083F340008B7300008F3
:100010003D340008550F0008913A00080000000028
:100020000000000000000000000000008D35000806
:100030004B10000800000000413400088F35000814
:10004000D3010008D3010008D3010008D301000840
:10005000D3010008D3010008D3010008D301000830
:10006000D3010008D3010008D30100081D100008C7
:10007000D3010008D3010008D3010008D301000810
:10008000D3010008D3010008D3010008D301000800
:10009000D3010008D3010008D3010008D3010008F0
:1000A000D3010008D3010008D3010008D3010008E0
:1000B000D3010008D3010008D3010008D3010008D0
:1000C000D3010008D3010008D3010008D3010008C0
:1000D000D30100087D3A0008853A0008D3010008E2
:1000E0004D100008D3010008D301000800F002F809
:1000F00000F053F80AA090E8000C82448344AAF16F
:100100000107DA4501D100F048F8AFF2090EBAE86C
:100110000F0013F0010F18BFFB1A43F0010318473B
:100120004C5C00006C5C0000103A24BF78C878C1B9
:10013000FAD8520724BF30C830C144BF04680C60ED
:10014000704700000023002400250026103A28BF35
:1001500078C1FBD8520728BF30C148BF0B60704739
:10016000662905F0C383642900F0B480752900F086
:10017000B180782900F0EA80732900F0B284002071
:1001800070471FB500F0C4FC04000020002105F0FA
:100190006FF9E0601FBD10B510BD00F0D5FD114630
:1001A000FFF7EFFF04F0E1FC00F0F3FD03B4FFF70D
:1001B000F2FF03BC00F036FE0948804709480047BB
:1001C000FEE7FEE7FEE7FEE7FEE7FEE7FEE7FEE707
:1001D000FEE7FEE704480549054A064B7047000064
:1001E0001B360008ED000008A8030020A809002025
:1001F000A8050020A80500200FB4044910B503AAE3
:10020000029800F073FC10BC5DF814FB4C01002058
:1002100070B5044685690068C10601D5302600E046
:100220002026C00707D070BDD4E901213046904791
:10023000206A401C20626D1EF6D570BD70B5044664
:1002400085690078C00707D170BDD4E9012120205D
:100250009047206A401C20626D1EF6D570BD09686B
:100260004A0501D540B27047C905FCD500B27047B8
:1002700009684A0501D5C0B27047C905FCD580B2EE
:10028000704770B50C460546012A05D028788006CF
:1002900000D5EA69002302E0012305E05B1C9342DC
:1002A00002D2E05C0028F9D1A869E618C01AA8615A
:1002B000286A184428622846FFF7AAFF04E0D5E917
:1002C000012114F8010B9047B442F8D32846FFF7F8
:1002D000B5FF70BD2DE9F041064600241068752970
:1002E000314616A510D0FFF7BAFF002802DA4042C7
:1002F00013A507E031688A0701D512A502E0490776
:1003000004D511A5012401E0FFF7B2FF00210A2264
:1003100006F1240709E0B0FBF2FCB0FBF2F302FBAC
:100320001C00303078541846491C0028F3D123466D
:100330002A463046BDE8F04100F05AB900000000FE
:100340002D0000002B0000002000000070B50446C6
:100350000D4621461068FFF78BFF2188090502D55D
:100360000F4A7A4402E00E4A7A440E32002104F128
:10037000240305E000F00F060009965D5E54491C59
:100380000028F7D120780023000704D5702D02D073
:1003900009B1022311322046BDE8704000F028B9AF
:1003A0008A5500002DE9F05F894604464FF0000AA7
:1003B000DFF874B1FB44C0F820A02046E16888470C
:1003C000002874D0252806D0D4E901219047206A5E
:1003D000401C2062F1E700265F462046E16888471E
:1003E0002028054607DB312D05D2781910F8200C9E
:1003F00008B10643F1E7B00701D526F00406C4F8BA
:100400001CA00027C4F818A02A2D09D0284605F002
:1004100028F838B304EB8708303DC8F8185019E0C5
:1004200059F8041B204604EB87029161E168884774
:10043000012F054618D1E069002820DA26F02006B1
:100440001DE0D8F8180000EB800005EB40003038C4
:10045000C8F818002046E1688847054605F001F80D
:100460000028EED1012F0AD02E2D08D12046E168B8
:1004700088477F1C0546022F46F02006C4DBA06992
:10048000002803DA404246F00106A061F00701D0DF
:1004900026F010066C2D0BD0682D09D04C2D39D0CC
:1004A0006A2D35D0742D35D07A2D33D016E038E052
:1004B000E1682F4620468847B842054609D16C2F8F
:1004C00026D04FF48060E168064320468847054601
:1004D00004E06C2F1AD04FF4807006430DB3A5F1E1
:1004E0004100192802D8203546F400664A462946BC
:1004F000204626604E46FFF733FE80B101280BD020
:10050000F61D26F0070000F1080956E74020E4E751
:100510008020D8E70020D6E706F104094DE72846F9
:1005200052E7206ABDE8F09F6055000010B5044610
:1005300003E003F07FFE401C09D014F8010B0549CD
:100540000028F6D1BDE810400A2003F073BE4FF03A
:10055000FF3010BD4C0100204FF000020429C0F014
:10056000128010F0030C00F01B80CCF1040CBCF1E5
:10057000020F18BF00F8012BA8BF20F8022BA1EB37
:100580000C0100F00DB85FEAC17C24BF00F8012B1C
:1005900000F8012B48BF00F8012B70474FF0000214
:1005A00000B5134694469646203922BFA0E80C5069
:1005B000A0E80C50B1F12001BFF4F7AF090728BF44
:1005C000A0E80C5048BF0CC05DF804EB890028BFC0
:1005D00040F8042B08BF704748BF20F8022B11F0E9
:1005E000804F18BF00F8012B704770477047704765
:1005F0002DE9F0470D4699469246044600F124083D
:100600000168880604D5E06921F01001216000E04E
:100610000120A84201DD471B00E00027A1697A19EB
:1006200002EB0900081AA0612078C00602D4204617
:10063000FFF7EEFD002608E0D4E901211AF80600D4
:100640009047206A401C761C20624E45F4DB2078DF
:10065000C0060AD52046FFF7DBFD06E0D4E90121FC
:1006600030209047206A401C2062381EA7F1010705
:10067000F4DC07E0D4E9012118F805009047206A6E
:10068000401C2062281EA5F10105F3DC2046FFF77F
:10069000D5FD2078000602D50220BDE8F0870120B4
:1006A000FBE72DE9FF4F0C461E464FF0FF378BB09E
:1006B000D2E90001DDF860800A908A46C1F30A554C
:1006C00005B93D46002108464FF00000BAF1000F81
:1006D00000F4400005DA00EB80004FF4400101EA2D
:1006E00050004FEA9059B9F1010F00DDB9460A9860
:1006F00050EA4A000ED044F61050A5F2FF354543AB
:100700002F14B8F1000F1ED07542291E1EDDC9F14D
:1007100000021CE0B8F1010F4FF0000001D03021C1
:1007200003E0F24305E02154401CB042FBDB3046BD
:100730000022002121540B99C1F80880C1E9002052
:100740000FB0BDE8F08FBD1B6D1CDEE74A4600DA36
:10075000694206A800F07EFA06AB93E8070003ABF7
:1007600083E8070050460A9904F09FFA8DE80700D5
:10077000A0F500501F3800900398002D0ADD42F2CA
:100780001F014A460844002303A90390684604F069
:1007900008FD09E0A0F500504A461F38002303A9D0
:1007A0000390684604F012FD8DE807000004000C79
:1007B00003D04FF0FF30410800E01046B8F1000FC1
:1007C00003D00022009215461EE0751E05D400F0ED
:1007D000A3F9303262556D1EF9D5B34601220843A4
:1007E00002D000227F1C04E02078302801D10022B2
:1007F0007F1E002A099784D01DE0112D07DA00F032
:100800008BF9303262556D1C50EA0102F5D1084374
:1008100002D00098C8B10EE00021681E05E0235CFC
:10082000625C63542254401E491C8142F7DBAB4694
:10083000A81B401E0990002004F80B000B98099A91
:10084000C0F80880C0E9002B7AE711264FF00008B5
:1008500057E72DE9F04F88460446D21D22F00701E4
:1008600091B0D1E90001CDE90A0104F0E6FD0246AC
:100870000B98C00F01D02D2007E02068810701D51B
:100880002B2002E0202101EAC000032A099001D0B8
:10089000072A05DB03464146204600F09BF90BE1A1
:1008A0002078800601D5E06900E00620B8F1650FE8
:1008B000814606D0B8F1660F18D0B8F1670F70D135
:1008C00031E00020B9F1110F009001DB112301E0AC
:1008D00009F101030AAA01A90CA8FFF7E2FEDDE96C
:1008E0000C70002609F10105834647E001204B46C4
:1008F00000904FF000470AAA01A90CA8FFF7D1FE0B
:10090000DDE90DB00C995D46002610B909F1010032
:100910000D18B9EB050003D4C0F1FF3609F101054C
:10092000A5EB09002BE0B9F1010F01DA4FF0010945
:100930000020B9F1110F0090484601DD112300E0BD
:1009400003460AAA01A90CA8FFF7ABFEDDE90C706B
:100950004D4600268346207800070AD4AB4500DACE
:100960005D4601A8012D04DD411911F8011C302953
:1009700007D04F4502DA17F1040F04DA012082464E
:100980000FE06D1EEEE7002F02DCED1B3E4403E09E
:10099000781CA84200DD7D1CB81B00F1010A4FF055
:1009A00000472078000703D4AA4501DB4FF0FF3A47
:1009B0000021B7F1004F0DF143088DF8431024D00A
:1009C00002202B23002F01DA7F422D230A21021E51
:1009D000A0F1010000DC5FB197FBF1FC97FBF1F2A5
:1009E00001FB1C7C17460CF1300C08F801CDEEE73A
:1009F000A8F1010003702188090501D5452100E017
:100A00006521A0F1010800F8011C09980FA9A1EBCC
:100A10000807FF1D00B10120411901EBEA70A1692F
:100A20003844081A401EA0612078C00602D420462F
:100A3000FFF7EEFB099828B1D4E901219047206A1D
:100A4000401C20622078C00622D52046FFF7E0FB3C
:100A50001EE0002E04DBB34502DD01A8805D00E04E
:100A60003020D4E901219047206A401C2062761C86
:100A7000AAF101005FEA000A0AD100F049F8C06853
:100A80000168405CD4E901219047206A401C206243
:100A9000281EA5F10105DCDC07E0D4E9012118F8E6
:100AA000010B9047206A401C2062381EA7F1010705
:100AB000F3DC2046FFF7C2FB032011B041E610B57E
:100AC000436913B1AFF3008001E0FFF7DAFB0120C7
:100AD00010BD127800F124010A7000224A70012230
:100AE000EDE711684FF0FF32E9E70000074B70B502
:100AF0000D467B4400F05BF80446284600F01CF9E4
:100B000010B14FF0FF3070BD204670BD3F37000080
:100B1000004870475000002030B5B0F10A0271F172
:100B200000034FEA900E4EEA817EB0EB0E0061EBBF
:100B300091014FEA101E4EEA017E10EB0E0041EBD0
:100B400011114FEA102E4EEA016E10EB0E0041EB30
:100B500011214FEA104E4EEA014E10EB0E0041EB10
:100B60001141401841F100014FEAD00040EA4170C4
:100B70004FEAD1014FEA810444EA907410EB8005FA
:100B800044EB01046D1944EB0404521BA3414FF0E4
:100B9000000348BF0A3200D530BD401C41F10001BE
:100BA00030BD000001694A1C02610878704700B539
:100BB0008FB0CDE901310021059105497944CDE996
:100BC000031011466846FFF7EDFB0FB000BD0000B3
:100BD000E5FFFFFF2DE9F0411F46044603260168AB
:100BE000072A01F4006004DB08B116A505E016A58C
:100BF00003E008B115A500E015A521F01000206064
:100C0000A069C01EA0610FB1401EA0612046FFF781
:100C1000FFFA4FB1D4E9012138469047206A401CC1
:100C20002062C01C206206E0206AFAE7D4E90121B4
:100C300015F8010B9047761EF8D22046FFF7FEFA12
:100C4000BDE8F0814E414E006E616E00494E460097
:100C5000696E66002DE9F047814616468AB0354830
:100C600078440DC88DE80D0032487844801C03ACF0
:100C70000DC884E80D0041F69B300844372190FBF5
:100C8000F1F290FBF1F5A5F1800501FB12041B3C8C
:100C900002D56442012000E00020DFF898A08046E1
:100CA0000027FA44AAF1BE0A0EE0E0070AD0324655
:100CB000684607EB470101230AEB810104F086FA3D
:100CC0008DE8070064107F1C002CEED1194F7F4483
:100CD000AE3F19E0E80715D007EB04100DF1180A34
:100CE00090E80E008AE80E00C068F04201D1981921
:100CF00008903246012306A903A804F067FA03AB63
:100D000083E807006D10641C002DE3D14FF0010350
:100D100032466946B8F1000F03A802D004F041FA48
:100D200001E004F053FAC9E90001C9F808200AB04B
:100D3000BDE8F087444D0000007B00F08000704764
:100D400000487047300000207546FFF7F9FFAE46B7
:100D500005006946534620F00700854618B020B5C7
:100D6000FFF738FABDE820404FF000064FF00007CB
:100D70004FF000084FF0000BAC46ACE8C009ACE8FF
:100D8000C009ACE8C009ACE8C00921F007018D46F4
:100D9000704710B50446AFF300802046BDE8104010
:100DA000FFF704BA4FF0013C50F8042B51F8043B14
:100DB0009A4221D1A2EB0C03934313EACC1317D12F
:100DC00050F8042B51F8043B9A4215D1A2EB0C03C6
:100DD000934313EACC130BD150F8042B51F8043B86
:100DE0009A4209D1A2EB0C03934313EACC13DBD054
:100DF0004FF00000704700BFD01A01BAB1FA81F17C
:100E000001F0180122FA01F0CB40DBB2C0B2C01AE7
:100E1000C1F120012CFA01F3D11A914311EAC31157
:100E2000E6D1704701491820ABBEFEE7260002005C
:100E30007047B0B5044600688168C90701D1002039
:100E4000B0BD816821F00101816000F047FD0546D9
:100E500020688068C007F2D000F040FD401B0328E6
:100E6000F6D320688068C007F2D0A06A40F0100076
:100E7000A062E06A40F00100E0620120B0BD0146DE
:100E8000406A826A12F0500F03D0006A026B084673
:100E900010470168826A42F400728262896801F434
:100EA0006021B1F5602F01D1017B09B100F060B97B
:100EB000816A21F480718162816AC904F6D4816AF1
:100EC00041F00101816200F053B9406A816A41F04A
:100ED00040018162C16A41F00401C16200F04AB977
:100EE000406A00F046B90000BCB5044600200190FD
:100EF00021688A68D2072AD1886840F0010088609A
:100F000099489A490068B0FBF1F00190019810B13E
:100F100001980138F9E700F0E1FC05462068806897
:100F2000C00715D100F0DAFC401B0328F6D3206877
:100F30008068C007F2D1A06A40F01000A0620020D3
:100F400084F82400E06A40F00100E0620120BCBDAA
:100F50000020BCBDFEE70000E0B500200DF1060159
:100F6000ADF80600164803F01BFABDF8061015A0F0
:100F7000FFF742F9BDF80600C10707D01648012166
:100F8000017016A0FFF7D2FABDF80600810707D559
:100F900011480121417015A0FFF7C8FABDF80600FD
:100FA000810507D515A0FFF7C1FA0B480121817013
:100FB000BDF80600400602D514A0FFF7B7FA8CBDB5
:100FC0000C000020495251205374617475733A200B
:100FD0002523780D0A000000E2000020495251202C
:100FE000547820646F6E650D000000004952512056
:100FF000527820646F6E650D000000004952512048
:1010000052782074696D656F75740D0049525120D6
:10101000435243206572726F720D0000BD4800F0AC
:101020005FBA00BFF0B5D0E90045D0E90F600127F5
:1010300007FA00F0102D70600846636008BF104684
:10104000A06008BF0A46E260F0BD70474FF48060C0
:1010500000F062BBEFF3108072B6FEE7F8B5002235
:10106000009290F82420012A01D1022160E04C680E
:10107000012280F82420062C0DD804EB84030A6892
:101080001F25053B02FA03F405FA03F603681D4623
:1010900055F8347F19E00C2C04EB840403680A68CB
:1010A00081BFA4F1410502FA05F41F26AE4087BFB7
:1010B0001D4655F82C7FA4F1230502FA05F49FBFC5
:1010C0001F26AE401D4655F8307F27EA0606092A3E
:1010D00044EA06042C601BD902EB42048968072508
:1010E0001E3CA14005FA04F4DD6825EA040421430E
:1010F000D96022F00101102916D11A49A1F1080482
:10110000A34217D0816A41F02001816201210CE0E5
:10111000896802EB42020724914004FA02F21C693A
:1011200024EA0202114319610021002280F82420E0
:101130000846F8BD0B681B02F6D40B68102A43F46E
:1011400000030B60F0D10849084A0968B1FBF2F1CD
:1011500001EB81014900009100990029E4D0009938
:101160000139F8E7082401400800002040420F0040
:101170007047704770470000C8B370B50546044615
:1011800055F8280F30B9002084F82400E06220468A
:1011900000F07AF82046FFF74CFEA26AA16A40BB35
:1011A00012F0100025D141F2021021EA00000230B5
:1011B000A062D4E90101E269237B10434A1EB1F524
:1011C000807FB2FA82F240EA43004FEA52160A46A2
:1011D00018BF3202267D012E16D173B1A36A43F0E7
:1011E0002003A362E36A43F00103E3620CE0012001
:1011F000704741F0100101203CE0A3691E4E06EB50
:1012000043331A4342F400622368B1F5807F5E687D
:1012100026F4694642EA0602184E5A609A6802EAC3
:10122000060242EA00029A6001D0012904D1216934
:10123000134A02EB015100E00021DA6A22F4700245
:101240001143104AD96299681140814206D10020A9
:101250000122E062A16A62F301010BE0A06A40F0A2
:10126000100020F00200A06254F82C0F40F00101A1
:1012700001202546296070BD00E0FFFFFDF7E1FF7A
:101280000000F0FFFE0E1FFFF0B585B000260446FB
:101290001E48CDE90366CDE90166226800F5E051FC
:1012A0008A4230D11A490A6842F400720A600A6818
:1012B00002F400720092009A0A6842F004020A6086
:1012C000096801F0040100910321CDE901110099A1
:1012D00001A900F02BFA0F4DCA4F20204FF4806176
:1012E0004FF480728023C5E90076C5E90263C5E941
:1012F0000421C5E90606284600F08EF908B1FFF77B
:10130000A9FE6C62256205B0F0BD00BF0008014077
:1013100018100240D8010020F8B50E4604460068B7
:1013200037491546884202D03649884206D13648A8
:10133000006810F4702F1CBF0120F8BD94F8240041
:10134000012804BF0220F8BD012084F824002046B3
:10135000FFF7CAFD18B1002184F82410F8BD2168F8
:10136000A06A40F60172904300F58070A0622648A2
:1013700000F57F72914205D0A06A20F48010A0622F
:10138000486808E0026812F4702FF5D0A26A42F4AF
:101390008012A2620068400504D5A06A012262F3AF
:1013A0000D30A062A06A0022194B1A4FC00444BF3E
:1013B000E26A22F00602E2626FF0020200200A6096
:1013C00084F82400114A206AC0E90A7302632B469C
:1013D0008A6842F480728A604C31324600F052F9D9
:1013E00020688268816802F46022B2F5602F0CBF29
:1013F00041F4A00141F4801181600020F8BD00BFDC
:10140000002801400024014004240140CB0E0008C4
:10141000E10E00087F0E000810B590F82110022997
:1014200012D10168D0E90F230C6824F00E040C607F
:101430000C6824F001040C60012101FA03F35360ED
:1014400080F82110002102E00421816301210022A3
:1014500080F82020084610BDB0B590F82110022970
:101460001CD10368674C01221968A34221F00E01C8
:101470001960196821F001011960614912D0624CAC
:10148000A34211D0614CA34210D0614CA34210D0B2
:10149000604CA34210D14FF4803415E004218163E5
:1014A00001211BE001240FE010240DE04FF48074B3
:1014B0000AE04FF4805407E001F168054FF08074B2
:1014C000AB4208BF4FF480140C60002180F820105C
:1014D00080F82120426B0AB1904700210846B0BD38
:1014E00070B50168D0E90F2314680D686E071DD52B
:1014F00004269E40264019D00A68920603D40A6842
:1015000022F004020A603F4B3D4A994258D03E4BBC
:10151000994244D03D4B994243D03D4B994243D0F0
:101520003C4B994243D14FF480234AE0AE0720D58B
:1015300002269E4026401CD00A68920606D40A68FD
:1015400022F00A020A60012280F821202D4B2C4A49
:10155000994239D02C4B994238D02C4B994237D0F4
:101560002B4B994237D02B4B994237D14FF4003354
:101570003CE02D0743D508259D402C403FD00C680A
:1015800024F00E040C60012101FA03F353600022E1
:10159000816380F8202080F82110016B2BE040232C
:1015A0000FE04FF480630CE04FF4804309E002F158
:1015B00068044FF08063A14208BF4FF4800300E04D
:1015C00004231360C16A16E002230FE020230DE01C
:1015D0004FF400730AE04FF4005307E002F168048F
:1015E0004FF00073A14208BF4FF40013002180F8B0
:1015F00020101360816A11B1BDE87040084770BDCA
:1016000004000240080002401C000240300002407A
:1016100044000240580002400146012061B32DE918
:10162000F043022201F10C0E43F6F07481F8212000
:1016300091E804039EE8E0501368A3430F4C43EA8B
:10164000080343EA09032B4333433B4343EA0C03B8
:1016500043EA0E03136000238B6381F82030084BAC
:101660001A441423B2FBF3F29200C1E90F4281F84D
:1016700021000020BDE8F043704700BF0000024099
:10168000F8FFFDBFB0B5044690F8200001281DD03A
:10169000012084F8200094F82100012813D10220B1
:1016A00084F821000020A0632068056825F001056A
:1016B00005602046FFF7B6FC2068E26A01683AB18F
:1016C00041F00E010AE0002084F820000220B0BDA5
:1016D00021F004010160016841F00A010160016824
:1016E00041F0010101600020B0BD0000B0B504462A
:1016F00000F0F4F80546F448611C007818BF044473
:1017000000F0ECF8401BA042FAD3B0BDB0F5806FFA
:1017100008BFFFF721BC704703490A68024208BFAF
:1017200070470860FFF7F2BF140401402DE9FC4F39
:10173000594A04234FF0000B4FF001084FF00F0EF1
:101740004FF000090025904208BF032300930B6867
:1017500033FA05F208BFBDE8FC8F08FA05F2134220
:1017600000F095804F68032F16D9112F24D0122F27
:1017700026D04C4B9F4213D04B4B9F4210D04B4B2B
:101780009F420DD04A4B9F420AD04A4B9F4207D0FE
:10179000494B9F4204D020E0DFE807F00216191DF4
:1017A0008B6833B1012B14BF426102614FF008090D
:1017B00013E04FF0040910E0CB6803F104090CE0DA
:1017C000CB6803F10C0908E0D1F80C9005E0CB6878
:1017D00003F1080901E04FF000095B460646082DB9
:1017E00028BF203B28BF043637680EFA03F409FAF5
:1017F00003F327EA040423433360CB79DB0646D5A1
:10180000D84C264E0BF00C0C2368A6F57E7643F0E0
:1018100001032360236803F0010301930EFA0CF324
:10182000019CAC0856F8247027EA030A234B98421F
:1018300008D0234B984207D0224B9842009B08BF08
:10184000022302E0002300E0012303FA0CF343EA41
:101850000A0346F82430114C114E4F68FB02A3686E
:1018600054BF93431343A360BB02336854BF9343F5
:1018700013433360BB03636854BF934313436360F4
:10188000FB03236854BF23EA02021A4322600BF1D0
:10189000040B01355BE700BF001401400004014068
:1018A0000C04014000001110000012100000211073
:1018B000000022100000311000003210000801402A
:1018C000000C0140001001408068084018BF012052
:1018D0007047002A08BF0904016170477B4800680F
:1018E000704700BFF8B560B3044690F83D0028B9D2
:1018F000002084F83C00204600F0B0F8242084F852
:101900003D002068016821F001010160016841F497
:1019100000410160016821F40041016000F074FAA7
:1019200049494A4B00224A4D88424FF0000138BFD6
:101930000121984238BF01226368AB4238BF0A4692
:101940000AB10120F8BD4349434EB0FBF1F22168D2
:10195000B3424D6825F03F0545EA02054D600D6A2A
:1019600025F03F0511D8013201382A430A625A0096
:101970004CF6FF73B0FBF2F001306FF31F30042818
:1019800098BF0420CA699A4337E04FF4967601382D
:1019900072434FF47A76B2FBF6F201322A434CF6E8
:1019A000FF750A62CA69AA43A56845B119260427CA
:1019B0005E43B0FBF6F6013667F31F3606E003EB35
:1019C0004306B0FBF6F601366FF31F36360509D035
:1019D00055B119256B43B0FBF3F00423013063F3D9
:1019E0001F3008E0012008E003EB4303B0FBF3F0F5
:1019F00001306FF31F3040F40040104304F10C0637
:101A0000C861E0690A6822F0C0021043226A1043EC
:101A100048F2FF320860886890436CCE1843104348
:101A20008860C86820F0FF0028433043C860086819
:101A300040F00100086000202021206484F83D105F
:101A4000206384F83E00F8BD80841E0000093D003C
:101A5000A186010040420F00A086010010B586B0AB
:101A60000021CDE90411CDE902110168114881423C
:101A70001DD13C4C00F53840216841F0080121603F
:101A8000216801F0080101910321059112210391C0
:101A9000C0210291019902A9FFF748FE606840F455
:101AA00000106060606800F400100190019806B0BA
:101AB00010BD00BF005400401B48044900780A686C
:101AC00010440860704700BF00000020A003002001
:101AD00080B5CA48016841F010010160032000F0A0
:101AE0006FF80F2000F004F800F020F8002080BD0F
:101AF00070B50D4E04464FF47A713078B1FBF0F0BA
:101B0000CB490968B1FBF0F000F03EFE01250F2C37
:101B100008D838B94FF0FF3021460022002500F0E8
:101B200033F87460284670BD0000002082B00D4874
:101B30000222016841F001010160016801F0010128
:101B400001910199416841F080514160406800F085
:101B50008050009000980448016862F31A610160A7
:101B600002B070471810024004000140002808D459
:101B700000F01F010122400902FA01F1014A42F876
:101B80002010704700E100E070B5134B4FF0FF35B7
:101B90001B68C3F30223DC1E83F0070338BF002455
:101BA000042B28BF042305FA04F605FA03F3B24315
:101BB0009943A1401143BDE8704001F06BBF00BFE5
:101BC00005494FF6FF030A681A4060F30A220348EA
:101BD00010430860704700BF0CED00E00000FA05FC
:101BE0002DE9FC4104460078A04EC00748D0B069FA
:101BF000C0000BD4B0694FF0010840F08050B061D4
:101C0000B06900F080500190019801E04FF00008A9
:101C10002D4F3868C00511D4386840F480703860A2
:101C2000FFF75CFE05463868C00507D4FFF756FE8F
:101C3000401B6428F7D90320BDE8FC81F06910F44B
:101C400040700FD0616801F4407188420AD01F498A
:101C5000F06901220A6000220A6020F44071C00786
:101C6000F16121D16068F169B8F1000F21F4407190
:101C700040EA0100F06103D0B06920F08050B0610B
:101C80002068810705D5A168326822F440421143DB
:101C90003160C00605D5E068316821F48001084351
:101CA00030600020BDE8FC81FFF718FE054641F2D8
:101CB0008837F0698007D5D4FFF710FE411B032059
:101CC000B942F6D9EEE700BF00700040400442423E
:101CD0002DE9F84300286AD0884648490446086838
:101CE00000F0070040450AD2086820F0070040EAEB
:101CF00008000860086800F00700404557D12068D8
:101D00005A4B8946810711D5410703D5196841F41B
:101D1000E0611960010703D5196841F46051196049
:101D2000A1681A6822F0F00211431960C00737D188
:101D3000D9F8000000F0070040450DD9D9F800009F
:101D400020F0070040EA0800C9F80000D9F80000B8
:101D500000F0070040452AD12068410705D5E16819
:101D60001A6822F4E06211431960000706D5206961
:101D7000196821F4605141EAC00018601C4600F067
:101D80005BF821681E4AC1F30311515CC840284921
:101D900008601C480068FFF7ABFE0020BDE8F88330
:101DA0006068012806D153F8041C89030BD4012074
:101DB000BDE8F88353F8041C022802D18901F6D546
:101DC00001E08907F3D519681D4621F00301084396
:101DD0001860FFF783FD064641F28837606829687E
:101DE0002B4601F00C01B1EB800FA1D0FFF776FD7F
:101DF000801BB842F2D90320BDE8F88300200240DE
:101E0000C059000804000020EB481849094A00683E
:101E10000968C1F30221515CC8407047E648134984
:101E2000044A00680968C1F3C221515CC840704788
:101E300008000020D059000810B50C490C480A6869
:101E400002F00C03082B07D1C2F3834309A4D20389
:101E5000E35C02D40C48584310BD096809A25843FA
:101E6000C1F34041515CB0FBF1F010BD04100240E1
:101E700000127A0002030405060708090A0B0C0D7C
:101E80000E0F10100102000000093D002DE9FC4179
:101E9000002800F0A68004460078C54EC00725D073
:101EA000706800F00C0004281AD0706800F00C0074
:101EB000082802D17068C00312D46068002800F0BE
:101EC0000C81B0F5803F07D03168B0F5A02F40F00D
:101ED000388141F480203060306840F4803036E151
:101EE0003068800302D5606800287AD020788007A7
:101EF00018D5706810F00C0F07D0706800F00C0057
:101F0000082824D17068C00321D43068800702D526
:101F10002069012865D16069316821F0F80141EA42
:101F2000C00030602078000741D5A06910B3A148F7
:101F30000121C0F88014FFF7D1FC0546706A8007C4
:101F400028D4FFF7CBFC401B0228F7D90CE121690C
:101F50009848002900F09A8001210160FFF7BEFC3B
:101F6000054630688007D6D4FFF7B8FC401B02282E
:101F7000F7D9F9E08F480021C0F88014FFF7AEFCD4
:101F80000546706A800712D5FFF7A8FC401B02289F
:101F9000F7D9E9E088484FF4FA510068B0FBF1F056
:101FA000019000BF0198411E00280191F9D12078CD
:101FB000400719D4E7698FB1706800F00C00082859
:101FC00045D1012F0DD0216A706800F480328A4219
:101FD00007D1616A00F47010884202D10020BDE888
:101FE000FC810120BDE8FC81F069C0000BD4F069E0
:101FF0004FF0010840F08050F061F06900F080502F
:102000000090009801E04FF000086C4F3868C00560
:102010000FD4386840F480703860FFF75FFC0546E5
:102020003868C00505D4FFF759FC401B6428F7D970
:102030009AE0E068D0B3012805D0316A052862D162
:1020400041F004003062306A40F0010061E059491B
:10205000002088460866FFF741FC0546022F0BD199
:1020600047463068800140F18280FFF737FC411B12
:1020700003200229F5D9B2E730688001AED5FFF719
:102080002DFC411B03200229F6D9A8E7002101609D
:10209000FFF724FC0546306880077FF543AFFFF764
:1020A0001DFC411B03200229F5D998E7306A20F076
:1020B00001003062306A20F004003062FFF70EFC4D
:1020C000054641F28837306A800731D5FFF706FCB4
:1020D000411B0320B942F6D981E7306820F48030F3
:1020E0003060306820F480203060FFF7F7FB054651
:1020F000306880037FF5FAAEFFF7F0FB411B032049
:102100006429F5D96BE721F001003062306A20F0D4
:1021100004003062FFF7E2FB054641F28837306A7F
:10212000800705D4FFF7DAFB401BB842F7D91BE064
:10213000B8F1000F3FF43EAFF06920F08050F0613D
:1021400038E721F480303060306820F4802030603F
:10215000FFF7C4FB0546306880033FF5C7AEFFF7C5
:10216000BDFB401B6428F6D90320BDE8FC81206A32
:10217000B0F5803F05D1A168726822F400321143A6
:102180007160616A0843716821F4741108437060DA
:1021900001203866FFF7A2FB0446306880013FF556
:1021A0001DAFFFF79BFB011B03200229F5D916E7A2
:1021B0000010024000004242080000200070004071
:1021C000F8B538B10446406A30B10020206104F10E
:1021D000140007E001254AE06068B0F5827F03D073
:1021E00004F11C00002101600025A56294F8510053
:1021F00000284FF0000007D1204684F8505000F02E
:1022000039F8A06A00F40050022184F8511094E8D3
:102210004E0002F4827203F404430F681A4406F479
:1022200000631A4427F040070F60236903F002039C
:102230001A44636903F001031A44A36903F40076A6
:102240003244E66906F038063244266A06F0800613
:10225000324310430860042000EA13404860C86914
:1022600020F40060C8610120656584F851002846AB
:10227000F8BD000070B586B00026194CCDE90466A3
:10228000CDE90266006804F52051884225D1154841
:1022900002AD016841F480510160016801F4805190
:1022A00001910199016841F004010160294600682B
:1022B00000F0040001900320059002200390A0206C
:1022C000029001982046FFF731FA4020CDE90366DD
:1022D000294602902046FFF729FA06B070BD00BFDC
:1022E00000080140181002402DE9FC41044690F816
:1022F0005100012817D160681D4617460E46B0F5FB
:10230000827F02D1A06800287BD0FFF7E7FA8046E1
:102310000120002E00F08880002F00F0858094F8C6
:102320005000012802D10220BDE8FC8104200121D7
:1023300084F8510000206065E78784F85010A78773
:10234000A663A0862063C4E91000E086A168206827
:10235000B1F5004F07D1016821F04001016001682B
:1023600021F4804101600168490603D4016841F00D
:1023700040010160E0686E1C60B3E08F68B32068C4
:102380008168C90708D1FFF7A9FA002EF5D0A0EBA4
:102390000800A842F1D340E0A16BC06821F8020B0D
:1023A000A163E08F0138E087E7E720688168C9070B
:1023B00007D1FFF793FA6EB1A0EB0800A84209D34A
:1023C0002BE0007BA16B0870A06B0130A063E08F55
:1023D0000138E087E08F0028E7D1204629464246B1
:1023E00001F02FF808B120206065012084F8510029
:1023F000002084F85000606D002818BF0120BDE85F
:10240000FC810420314632463B4684F85100204688
:10241000009500F0C4F8BDE8FC81002084F850006D
:10242000012084F851000320BDE8FC812DE9FC4126
:102430001D4616460F460446FFF750FA804694F8AC
:10244000510001280AD10120002F00F09D80002EAC
:1024500000F09A8094F85000012802D10220BDE8D3
:10246000FC810320012184F8510000206065E6868C
:1024700084F85010A6862763A087A063C4E91000E3
:10248000E087A1682068B1F5004F07D1016821F00D
:1024900040010160016841F4804101600168490622
:1024A00003D4016841F0400101606168731EE26875
:1024B000B3FA83F3B1FA81F15B09B2F5006F4FEA29
:1024C000511141EA030120D131B137F8021BC1603B
:1024D0002763E08E0138E0866E1CE08EC0B3206872
:1024E0008168890708D4FFF7F9F9002EF5D0A0EB31
:1024F0000800A842F1D349E0216B31F8022BC260F9
:102500002163E08E0138E086E7E739B1397801735D
:10251000206B01302063E08E0138E0866E1CE08E77
:10252000B0B120688168890708D4FFF7D7F9002E79
:10253000F5D0A0EB0800A842F1D327E0216B097881
:102540000173206B01302063E08E0138E086E6E7FE
:1025500020462946424600F09EFF08B120206065D3
:10256000A06838B9002001902068C1680191806896
:1025700001900198012084F85100002084F8500057
:10258000606D002818BF0120BDE8FC81002084F8A0
:102590005000012084F851000320BDE8FC812DE9A2
:1025A000F8431E4615460F460446FFF797F994F880
:1025B0005110814601296FD10120002F77D0002DC5
:1025C00075D0002E73D094F85000012871D00120EE
:1025D00084F8500094F8510004281CBF052084F8AA
:1025E000510000206065E687E686A563A68727631D
:1025F000C4E91000A68620680168490603D4016872
:1026000041F0400101606168731EE268DDF82080DE
:10261000B3FA83F3B1FA81F15B09B2F5006F4FEAC7
:10262000511141EA030147D131B137F8021BC160B2
:102630002763E08E0138E086012608F10105E08E6F
:1026400010B9E08F00287AD02068816889070CD5FE
:10265000E18E012E09D141B1216B002631F8022B08
:10266000C2602163E18E0139E1868168C9070AD021
:10267000E18F41B1A16BC068012621F8020BA16373
:10268000E08F0138E087FFF729F9002DD7D0A0EBC4
:1026900009004045D3D349E06068B0F5827F08D196
:1026A0000220042903D1A16800293FF485AFBDE8C9
:1026B000F8830220BDE8F88339B139780173206BC3
:1026C00001302063E08E0138E086012608F1010523
:1026D000E08E08B9E08F90B32068816889070ED535
:1026E000E18E012E0BD151B1216B002609780173C7
:1026F000216B206801312163E18E0139E186816817
:10270000C9070BD0E18F49B1A16BC06801260870E1
:10271000A06B0130A063E08F0138E087FFF7DEF89F
:10272000002DD5D0A0EB09004045D1D3002084F87E
:102730005000012084F851000320BDE8F8832046B2
:1027400041464A4600F0A7FE38B1002084F8500008
:10275000202060650120BDE8F883A06838B900201A
:1027600000902068C1680091806800900098012066
:1027700084F85100002084F85000606D002818BFD4
:102780000120BDE8F8830000411E0020B0EB116F6E
:102790001CBF01207047044AF023516003490B70AD
:1027A000072190601160704710E000E023ED00E029
:1027B000F0B5024690F83C00012804BF0220F0BDAD
:1027C000002001F108074B6982F83C001268E0CF55
:1027D000D1E900C4C96926F47C5625F4705524F467
:1027E000F04435432C432CF4E0452C4327F4C045FA
:1027F0002C43234323F4804319435164F0BD00006C
:1028000010B590F83C300222012B24D080F83D20F6
:10281000012280F83C2002680B685468B2F1804FB6
:1028200024F0700444EA03049368546008D0DD4C3B
:10283000A24205D0DA4CA24202D0DB4CA24204D123
:10284000496823F08003194391600022012180F838
:102850003C2080F83D10104610BD00BF40B310B5BD
:10286000044690F83D0028B9002084F83C0020463A
:1028700000F020F80220211D84F83D00206800F0BF
:10288000CDFE012084F8460084F83E0084F83F0025
:1028900084F8400084F8410084F8420084F8430042
:1028A00084F8440084F8450084F83D00002010BD01
:1028B0000120704781B00068B949884209D1564863
:1028C000016841F400610160006800F4006000905C
:1028D000009801B0704700BF10B590F83C20044646
:1028E0000220012A70D084F83D0001204FF6777352
:1028F00084F83C00206882689A4382600A6812B3B8
:10290000102A20D0202A1ED0302A1CD0402A21D0C4
:10291000502A2BD0602A35D0B2F5005F3ED0B2F5F8
:10292000805F4AD0702A50D1D1E90123C9681A4387
:1029300042EA0121826822F47F421143816081686A
:1029400041F0770138E0816821F07001114341F0D6
:10295000070131E04B68CA68194600F04DFF206856
:10296000816841F0470121F0300125E04B68CA68D9
:10297000194600F041FF2068816841F0570121F0BD
:10298000200119E04B68CA68194600F046FF20682C
:10299000816841F0670121F010010DE0D1E90123C8
:1029A000C9681A4342EA0121826822F47F42114336
:1029B0008160816841F4804181600020002184F8B9
:1029C0003C10012184F83D1010BD0120F6E7000005
:1029D000FEB501460020CDE90400CDE902000D4816
:1029E000096800F51052914212D10B490A6842F071
:1029F00004020A60096801F00401019102210591B5
:102A000003914FF480710291019902A9FEF78EFEA5
:102A100006B080BD0008014018100240B0B5044661
:102A200090F83C00012804BF0220B0BD0D464FEADB
:102A3000B2010120032984F83C0037D8DFE801F017
:102A4000020A12222068294600F036FE206850F85B
:102A5000181F0EE02068294600F056FE206850F846
:102A6000181F16E02068294600F07AFE206850F80A
:102A70001C1F41F008010160016821F004010160A0
:102A800029690FE02068294600F094FE206850F87C
:102A90001C1F41F400610160016821F48061016044
:102AA000296909020268114301600020002184F8AD
:102AB0003C10B0BD40B310B5044690F83D0028B9B5
:102AC000002084F83C00204600F020F80220211D60
:102AD00084F83D00206800F0A1FD012084F8460044
:102AE00084F83E0084F83F0084F8400084F84100F8
:102AF00084F8420084F8430084F8440084F84500D8
:102B000084F83D00002010BD012070477047000090
:102B100010B5044641B1082909D0042914BF04F1B5
:102B2000410004F13F0004E004F13E0001E004F143
:102B30004000007801281CBF012010BD022041B1D7
:102B4000082909D0042914BF84F8410084F83F0003
:102B500004E084F83E0001E084F84000206801228F
:102B600000F09AFD20680E49884203D14A6C42F475
:102B700000424A64B0F1804F07D00A4A904204D024
:102B8000884202D00849884204D1816801F00701D7
:102B9000062903D0016841F001010160002010BD49
:102BA000002C014000040040000800407CB50446B1
:102BB00090F8420020281DD10125E1B1DAB10125AC
:102BC000204600262563666300F008FF206B01287D
:102BD00011D1019620680168019141680191019924
:102BE00050E8030F216840F0100041E8030222B1D1
:102BF0002068F5E7022528467CBD0025FBE700009C
:102C00000068F84A904208D0F74A904204D104483C
:102C100001220260034801607047084601F0A8B92C
:102C2000A4010020A001002070470000F8B5044670
:102C300000680168C268466901F02F0502F02003B0
:102C4000202D05D123B12046BDE8F84000F024BE78
:102C50005FEA017E08D006F0010612F4907F86F04C
:102C6000010752D1002F50D01140CA06226B3BD52C
:102C7000012A39D100210091016800914168009139
:102C800000994169490600F18E80E18DA28DE38DA6
:102C900013B1511A0A0401D1F8BD206850E8030F9E
:102CA000226820F4907042E80303002BF5D12068DD
:102CB00050E8050F226820F0010042E80503002BD0
:102CC000F5D1202084F8420000202063206850E8DD
:102CD000030F226820F0100042E80303002BF5D117
:102CE000022089B26063A3E00A0600F1A6804906CB
:102CF000D2D5C16821F04001C160202084F8410094
:102D00002046BDE8F84000F0D5B9CD0718BF12F451
:102D1000807503D0656C45F00105656401F004051C
:102D20004FF0010C8CEA95053D4303D1656C45F0ED
:102D30000205656401F002058CEA55053D4303D1A7
:102D4000656C45F004056564334318BF0123BEF18B
:102D5000000F04D51BB1636C43F008036364636C1C
:102D6000002B99D01140890603D5204600F094FD30
:102D700020684069616C00F0400001F008014018D3
:102D80006CD0204600F061FD20684169490679D584
:102D900050E8050F216820F0400041E80502002AB4
:102DA00062D02068F4E7E26B11684B689DB2002D99
:102DB0003FF472AFA18D8D42BFF46EAFE38592698F
:102DC000202A30D050E8030F216820F4807041E8B9
:102DD00003020AB12068F5E7206850E8050F216872
:102DE00020F0010041E80502002AF5D1206850E8F2
:102DF000050F216820F0400041E80502002AF5D1C6
:102E0000202084F8420000202063206850E8030F4F
:102E1000216820F0100041E80302002AF5D1E06BA0
:102E2000FEF7FAFAA18D02206063E08D081A81B2E4
:102E30002046BDE8F840FFF7E3BE94F84110212991
:102E40007FF42AAFA168B1F5805F01D12169F1B1AA
:102E5000216A4A1C2262097841601FE02046FFF780
:102E6000E3FE00206064F8BDE06B58B11349416394
:102E7000FEF7F2FA00283FF40FAFE06B416BBDE8BC
:102E8000F84008472046BDE8F840FFF7CDBE216A6C
:102E900031F8022B6FF35F2221624260E18C01392D
:102EA000E18409047FF4F8AEC16821F08001C160BB
:102EB000C16841F04001C160F8BD00BF3F38000863
:102EC00058B310B5044690F8410028B9002084F8A2
:102ED0004000204600F024F8242084F841002068B7
:102EE000C16821F40051C160204600F037FD206820
:102EF000016921F490410161416921F02A01416198
:102F0000C16841F40051C16000202021606484F850
:102F1000411084F84210606310BD0120704700002A
:102F2000B0B586B00021D34CCDE90411CDE9021132
:102F30002C490068884224D03149884250D1CC487D
:102F4000016841F480410160016801F48041019110
:102F50000199016841F00401016002A9006800F0D4
:102F60000400019003200590022003904FF40070AC
:102F7000029001982046FEF7D9FB4FF4806025258A
:102F80001EE0BB48416841F400314160416801F4F2
:102F9000003101910199016841F00401016002A929
:102FA000006800F0040001900320059002200390C7
:102FB0000420029001982046FEF7B8FB0820262541
:102FC0000290002002A9CDE903002046FEF7AEFBE7
:102FD000284600210022FEF7D7FD2846FEF7C6FD51
:102FE00006B0B0BD0044004000380140006804490C
:102FF000884200D07047034801210160704700BF3C
:1030000000380140A40100202DE9F843044690F85F
:10301000410020281CBF0220BDE8F883884601201B
:1030200000293FD01746EAB34FF0000921201D4682
:10303000C4F8449084F84100FEF750FCE78406464B
:10304000A784A068B0F5805F05D12769002F0CBF69
:10305000C146474600E04746E08CB8B12046802193
:1030600032462B4600F0D3FCF0B927B117F8010B1C
:103070002168486006E039F8021B206800276FF3DA
:103080005F214160E08C0138E084E5E72046402183
:1030900032462B4600F0BBFC2021002884F841106A
:1030A00018BF0320BDE8F883202084F841000320E6
:1030B000BDE8F8837047FEE7BFB517484FF46021BD
:1030C000164A0024012502230394CDE90144C1617D
:1030D0004FF48071047505730361C0E900248160B9
:1030E000FEF74AF808B1FDF7B5FF032001A90390E8
:1030F0000948CDE90145FDF7B1FF08B1FDF7AAFF89
:10310000022001A90290012001900348FDF7A6FFCB
:1031100008B1FDF79FFFBFBDA801002000240140BA
:10312000E0B50A480022016841F001010160002178
:10313000006800F00100019001980B20FEF724FDCB
:103140000B20BDE88C40FEF711BD00BF14100240FB
:103150002DE9F04F85B04648464D474E00224FF0CE
:103160000008016805F5006741F010010160016881
:1031700001F0100101910199016841F02001016005
:10318000016801F0200101910199016841F00401F9
:103190000160016801F0040101910199016841F0A9
:1031A000080101604FF40051006800F00800019030
:1031B00001983846B04738464FF4004101224FF09D
:1031C000010AB047284610210122B04705F5806466
:1031D00048F2020101222046B0474FF0020B01AE37
:1031E0004FF42040DFF89490CDF810B0CDE902A85C
:1031F000019038463146C847032728463146CDE975
:1032000001B7C84710200497CDE902A831460190C4
:103210002846C84743F20100CDE9028831460190B3
:103220002046C84720463146CDE90387CDE901BA9B
:10323000C84713483146CDF80C8002904FF48060A7
:1032400001902046C8474FF40040CDF810B0CDE9BA
:1032500002A8314601902046C84728200A210022B2
:10326000FEF792FC2820FEF781FC05B0BDE8F08F48
:103270001810024000080140D31800082D1700085C
:103280000000111010B50B480B4B0C4C00214FF4F3
:103290008042C0E90043C0E90211C0E90421C0E94D
:1032A00006110162FEF71EFB18B1BDE81040FDF7E4
:1032B000D1BE10BD1C020020A086010000540040B9
:1032C000B0B50E4800210E4B0A244FF482724FF421
:1032D0000075C0E90811C0E90A142024C0E90032D1
:1032E000C0E90211C0E90411C0E90654FEF768FF05
:1032F00018B1BDE8B040FDF7ADBEB0BD7002002012
:103300000030014070B596B009AC00251C21204664
:10331000CDE91455CDE91255CDE91055FDF73EF92B
:1033200001A82021FDF73AF92748F64E41F61F4340
:1033300080216322C0E90063C0E90252C0E904555C
:103340008161FFF78BFA08B1FDF784FE4FF48050DE
:1033500012A912901C48FFF7BFFA08B1FDF77AFED8
:103360001948FFF7A7FB08B1FDF774FE002010A96C
:10337000CDE910001448FFF743FA08B1FDF76AFEE3
:10338000602018210990201DFDF708F90E482146FC
:1033900000220025FFF742FB08B1FDF75BFE01AC00
:1033A00014212046FDF7FAF84FF400502146089505
:1033B00006900548FFF7FCF908B1FDF74BFE0248FF
:1033C000FFF706FB16B070BDC802002010B50B4811
:1033D0000B4C4FF4E13300210C22C0E90043C0E95B
:1033E0000211C0E90412C0E90611FFF769FD18B126
:1033F000BDE81040FDF72EBE10BD00BF1003002039
:103400000038014010B50B480B4C4FF41653002107
:103410000C22C0E90043C0E90211C0E90412C0E96E
:103420000611FFF74DFD18B1BDE81040FDF712BEC3
:1034300010BD00BF5803002000440040FEE7FEE737
:103440007047BCB5044640680B46B0F5827F13D187
:10345000A068B0F5004F02D0B0F5806F0CD12168A4
:10346000B0F5806F0D6825F040050D6004D1009225
:1034700000252046012103E00025204680210092FE
:10348000002200F023F820B1606D032540F02000F9
:1034900060652846BCBD7CB50D46164600920221EB
:1034A000012204462B4600F011F840B92046802145
:1034B00000222B460096002600F008F820B1606D2F
:1034C000032640F02000606530467CBD2DE9F843BE
:1034D000089F1C4615460E468046FEF7FFF9381A2F
:1034E0000719FEF7FBF98146274801340068C0F34D
:1034F000CB3078430090D8F8000081683140891BB8
:10350000B1FA81F14909A9420FD0002CF5D0FEF79C
:10351000E5F9A0EB0900B8420AD2009800990139F8
:103520000028009108BF0746E5E70020BDE8F883C2
:10353000D8E900014268B1F5827F22F0E0024260E2
:103540000BD1D8F80810B1F5004F02D0B1F5806F5B
:1035500003D1016821F040010160D8F82810B1F5CD
:10356000005F07D1016821F400510160016841F456
:1035700000510160002088F85000012088F85100B7
:103580000320BDE8F88300BF080000207047FEF765
:1035900093BAB0B594B0002405A81421CDE90F4426
:1035A000CDE90D44FCF7FAFF4FF4E01002250121AC
:1035B0000C94CDE90344CDE9014413904FF48030DD
:1035C00011950E911290CDE90A100AA8FEF75EFC43
:1035D00018B1EFF3108072B6FEE74FF480600994E3
:1035E0000221CDE907400F20CDE9050505A8FEF72A
:1035F0006FFB18B1EFF3108072B6FEE74FF4004096
:1036000003900220019001A8FEF7EAFA18B1EFF347
:10361000108072B6FEE714B0B0BD704770B5036895
:10362000744AB0F1804F07D0194CA04204D09042A8
:1036300002D0184CA04203D14C6823F070032343FE
:10364000B0F1804F07D0124CA04204D0904202D07B
:10365000104CA04203D1CC6823F4407323434E693D
:1036600023F080030C688D68904243EA06030360F0
:10367000C562846201D10969116301214161016957
:10368000C90703D0016921F00101016170BD00BFCC
:10369000000400400008004010B501F01F010123A4
:1036A000046A8B4002FA01F124EA03030362026A0E
:1036B0001143016210BD0000F0B5026A036A23F0F5
:1036C000010322F0020203628C680B682243446803
:1036D000856925F073052B43464DA8420BD1CD6873
:1036E000D1E9056724F4407422F00C02344325F03C
:1036F00004053C432A434460836149684163026294
:10370000F0BD00BF002C0140F0B5026A036A23F04F
:10371000100322F0200203628C680B6842EA041254
:103720004468856925F4E64545EA0323314DA842FE
:103730000FD1D1E9056724F44064CD6822F0C002BE
:1037400044EA86046FF0400606EA051544EA870459
:103750002A4344608361496881630262F0BD00BF0F
:10376000F0B5026A036A23F4807322F400720362E4
:103770008C680B6842EA04224468C56925F0730529
:103780002B431C4DA8420FD1CD68D1E9056724F425
:10379000405422F4406244EA06142D0240F2FF46EF
:1037A000B54344EA07142A434460C3614968C163CE
:1037B0000262F0BDB0B5026A036A23F4805322F4BA
:1037C000005203628B680C6842EA03324368C569A1
:1037D00025F4E64545EA0424064DA84204D14D6986
:1037E00023F4804343EA85134360C461496801645C
:1037F0000262B0BD002C014010B5036A046A24F0D7
:1038000001040462846924F0F00444EA0212826133
:1038100023F00A021143016210BD10B5036A046A65
:1038200024F010040462846924F4704444EA0232EF
:10383000826123F0A00242EA0111016210BD406AD8
:103840000021C185C184FFF7EFB9016851E8031F6A
:10385000026821F4907142E80313002BF5D101684E
:1038600051E8051F026821F0010142E80513002B11
:10387000F5D1016B012909D1016851E8031F0268E4
:1038800021F0100142E80313002BF5D1202180F82C
:10389000421000210163704781B090F84210222944
:1038A00020D18368B3F5805F08D10169002949D030
:1038B00000F128010A6803685B680AE0014651F8D4
:1038C000282F13B90369002BF5D003685B6803F058
:1038D0007F0313700A6801320A60C18D0139C18506
:1038E000090401D001B070470168CA6822F02002C3
:1038F000CA60CA6822F48072CA604A6922F0010272
:103900004A61202280F8422000224263036B012B8F
:1039100021D1026351E8031F026821F0100142E83F
:1039200003130168002BF5D10A68D20606D50022E0
:1039300000920A680092496800910099818D01B057
:10394000FFF75EB90168826A49686FF35F2122F868
:10395000021B8262C1E701B0FFF748BBB0B5044665
:10396000006804F108030ECB056925F4405519439E
:103970002A4341F20C650261C2686369AA43194394
:103980001143C1604169A26921F440711143416151
:103990001149884202D0FEF737FA01E0FEF73EFAFD
:1039A00019214843D4E900126FF063049200B0FB80
:1039B000F2F06422B0FBF2F303FB0400322404EBC8
:1039C0000010B0FBF2F000F0F00200F00F0002EB8C
:1039D000031210448860B0BD003801400023C28546
:1039E000436481622221828580F842100168006967
:1039F00018B1C86840F48070C860486940F00100A0
:103A00004861C86840F02000C860002070472DE978
:103A1000FC41044600681D4690460F465E1C016846
:103A20003940B94226D0002EF9D0FDF757FF0146A4
:103A30000320EDB1A1EB0801A94219D82068C168A3
:103A40004907ECD5402F18BF802FE8D0016809073F
:103A5000E5D5002501950168019140680190019824
:103A60002046FFF7F2FE082084F8405060640120F1
:103A7000BDE8FC810020BDE8FC810000D548FFF7CF
:103A8000D5B800BF0148FFF7D1B800BF58030020E8
:103A9000FEE7000010B5074C00F00F03044AB0F138
:103AA000FF3F2344C8BF83180801187010BD00BF32
:103AB00000E400E014ED00E0B0B517A0FCF736FD1F
:103AC0001E4C1FA5204600F03DFD38B12846FCF7EE
:103AD0002DFD4FF47A70FDF709FEF3E72348244CDF
:103AE000A0472448A04700F07BFA00F0B9F901F0A4
:103AF0007BF801F0D9F820A0A047804C0020E061BD
:103B00002076FDF7EBFE2060244841F28831BDE8C5
:103B1000B040FCF771BB00BF5B4C6F52615D20E5AC
:103B2000889DE5A78BE58C96204C4C434336382086
:103B3000E6A8A1E59D972E2E2E0D00000C0000207A
:103B40005B4C6F52615D20E5889DE5A78BE58C9607
:103B5000E5A4B1E8B4A5EFBC8C31E7A792E5908E5F
:103B6000E9878DE8AF952E2E2E0D0000BA5B000878
:103B70002D0500089C5B00085B4C6F52615D20E4E2
:103B8000BCA0E6849FE599A8E5889DE5A78BE58C18
:103B900096E5AE8CE688900D000000005C5B0008A6
:103BA0002DE9F04F8BB0DFF85491D9F8040060B1E3
:103BB000FDF794FED9F80410884206D302200021B4
:103BC000002400F045FBC9F80440FDF787FED9F852
:103BD0000010401A41F288318842C0F08B80FDF716
:103BE0007DFEC9F80000002407A806A9CDE9064417
:103BF00000F050FA28B142A0CDF82240FCF796FC24
:103C000010E0464C0698214601F0A4FD01F03AFD73
:103C1000ADF822000798214601F09CFD01F032FD2D
:103C2000ADF8240007A800F035F948B1014600209E
:103C3000ADF826003AA0FCF7DFFABDF826A003E0B5
:103C4000BDF81CA0ADF826A000F0A6FF0446ADF814
:103C5000280001F011F8BDF92260BDF92470054675
:103C60000120A9F80E40A9F80CA089F81800A9F8BD
:103C70001050ADF82A50A9F80860A9F80A70FDF7AD
:103C80002DFEC9F81C00384601F038FD23498B464B
:103C900001F036FC01F008FC07463046884601F08A
:103CA0002DFD594601F02CFC01F0FEFB024623B22B
:103CB00028B20FFA8AF4CDE90078CDE902430490E6
:103CC00020480B46FCF798FA1F480DF122010A2202
:103CD0004FF47A7300F030FD18B11CA0FCF726FCFD
:103CE00008E00220012100F0B3FAFDF7F7FD64308F
:103CF000C9F804000BB0BDE8F08F00BFB40000208D
:103D00005B4C6F52615D20444854323220E8AFBBB7
:103D1000E58F96E5A4B1E8B4A50D000000002041B0
:103D20005B4C6F52615D20434F3220E8AFBBE58FA3
:103D300096E5A4B1E8B4A520287265743D256429F0
:103D40000D0A0000195B00080C0000205B4C6F524C
:103D5000615D20E58F91E98081E5A4B1E8B4A5EF2C
:103D6000BC810D00F8B51A4C1A482022211DFEF71F
:103D70001DFF194821460222FDF7CEFA00F04CFF44
:103D8000164C174E2046B0471648B04716A0B0470D
:103D9000234D2846B04700F07FFA224F0120002132
:103DA000B84702200021B84703200021B847FFF799
:103DB00083FE2046B0471CA0B0472846B04727489E
:103DC0000A2100F013FFBDE8F84000F033BF00BF48
:103DD0009000002010030020A8010020AC5A000829
:103DE0002D050008D85A000820E8B083E5BAA6E5FA
:103DF00099A8E78988EFBC88E697B6E997B4E78980
:103E000087E8BDAEE8AFA2202B20E7A9BAE997B2B8
:103E1000E4BD8EE58A9FE88097EFBC890D00000025
:103E2000805A00085142000820E68980E69C89E615
:103E3000A8A1E59D97E5889DE5A78BE58C96E5AE65
:103E40008CE68890EFBC8CE590AFE58AA8E8B0835B
:103E5000E5BAA6E599A82E2E2E0D0000A13B00087C
:103E6000E0B54A4800210170416049480068016896
:103E7000890601D54168FAE70168090706D50021DE
:103E800001910168019140680190019800F076F875
:103E900000208CBDF8B560B3224E0446307801286E
:103EA0001CBF6FF00100F8BD716800271EA03770BD
:103EB000FCF7A2F92CA57168F8B2814206D930440A
:103EC000017A2846FCF798F90137F4E71CA0FCF7C3
:103ED0002DFB716806291ED3307A2C281BD10020B7
:103EE0000022052808D0331801301B7A1A44D2B2B8
:103EF000F7E74FF0FF30F8BD707B82420BD1B6F888
:103F0000090000BA000C2080B6F80B0000BA000CC3
:103F100060800020F8BD0BA0FCF76EF96FF0020086
:103F2000F8BD00BFD40000205B434F325D20E69413
:103F3000B6E588B020256420E5AD97E88A823A008E
:103F40000D0000005B434F325D20E5B8A7E6A0A15D
:103F5000E9AA8CE5A4B1E8B4A5202873697A653D87
:103F60002564290D0A000000202530325800000089
:103F7000064901220A704860AFF300800348062218
:103F800000F108010248FEF711BE00BFD400002076
:103F900058030020B0B50F490F4C4A688B6824685D
:103FA0000D6825F002050D600C4DB4FBF5F460437F
:103FB00001384860002088600868C003FCD54A606A
:103FC000934238BF1A468A60086840F002000860D1
:103FD000B0BD00BF10E000E00800002040420F002C
:103FE000E0B50A480122016841F0100101604FF478
:103FF0000041006800F01000019001988C48FDF726
:1040000068FCBDE88C4000F0B7B800BF1810024053
:104010002DE9F843864D8146002607274FF0010819
:10402000002F31D4642428464FF40041FDF74CFCA6
:1040300028B90120FFF7AEFF013CF4D11CE0282095
:10404000FFF7A8FF28464FF40041FDF73DFC01288B
:1040500010D108FA07F06424064328464FF40041C3
:10406000FDF732FC012805D10120FFF793FF013C49
:10407000F3D105E0013FD3E74FF0FF30BDE8F8830F
:104080006FF00100BDE8F883002089F80060BDE80A
:10409000F88300BFFEB5054600200C468DF80800E9
:1040A000019000F079F830B1014623A0FCF7A4F8A4
:1040B0004FF0FF30FEBD002601AF052E08D0B81925
:1040C000FFF7A6FF01360028F7D56FF00100FEBD0F
:1040D0003220FFF75FFF9DF804009DF805109DF862
:1040E00006609DF807709DF808300A1832443A447B
:1040F000D2B29A421CBF6FF00200FEBD41EA00201E
:1041000001F0FCFA134901F0FBF928604FF4FE407E
:1041100016F0800500EA062008BF3002384401F09E
:10412000EDFA0D49002D04BF0021C4F2201101F069
:10413000E7F920600020FEBD646874323220737499
:10414000617274206572726F7220636F64652025DE
:10415000640D0A0000002041000020C1F8B50120D4
:104160004FF40041029000200091694601900390B5
:104170002F48FDF7DBFA8FBDF8B5022069460390A2
:1041800001200290112001904FF400400090284837
:10419000FDF7CCFA8FBD00BFB0B5FFF7EDFF244CA3
:1041A0004FF4004100222046FDF793FB4FF47A7054
:1041B000FFF7F0FE20464FF400410122FDF789FB96
:1041C0001E20FFF7E7FEFFF7C9FF41F288352046C2
:1041D0004FF40041FDF778FB012807D10120FFF7DC
:1041E000D9FE013DF3D14FF0FF30B0BD642520462C
:1041F0004FF40041FDF768FB38B90120FFF7CAFE14
:10420000013DF4D16FF00100B0BD642520464FF4AC
:104210000041FDF759FB012807D10120FFF7BAFE45
:10422000013DF3D16FF00200B0BD0020B0BD00BF72
:1042300000100140E0B50190044801A901224FF0AF
:10424000FF33FEF7E1FE01988CBD00BF1003002094
:104250000A4603280BD0022813D0012806D113499F
:104260000020002A08BF6420096848637047094895
:104270004FF40051002A18BF012200F58060FDF7BD
:1042800028BBB2FA82F04FF4004142090148FDF721
:1042900020BB00BF000C014080B5FEF759FF03486A
:1042A0000021BDE88040FEF733BC00BFC8020020FB
:1042B000E0B58DF807108921022200238DF8061041
:1042C000002100910DF1060100F00EF98CBDE0B562
:1042D0008DF8061098218DF80720032200238DF811
:1042E0000510002100910DF1050100F0FDF88CBDD5
:1042F0000332C1F38701C2F38702FFF7E8BF1CB5A1
:10430000044600200DF1070240F6D80101238DF884
:104310000700204600F086FA00B11CBD9DF807009A
:104320000DF1070240F6D801012340F01E008DF880
:104330000700204600F007FC1CBDE0B50021072265
:104340000023ADF804208DF80610009101A9032286
:1043500000F0CAF88CBDE0B58DF80710090A0222FA
:1043600000238DF8061000218DF80520032200910E
:104370000DF1050100F0B8F88CBD000043F60951BD
:10438000064BB0FBF1F202FB030041F6846343EA03
:104390008030B0FBF1F000EB82307047F7C2FFFFD6
:1043A0007CB5064600200C460DF10601ADF806006E
:1043B000304600F012F800B17CBDBDF8065025B1C2
:1043C00030462946FFF7C7FF00E00020002CF3D05D
:1043D0000028F1D1002025807CBD1CB50C4612219F
:1043E00001AB0222ADF806100021ADF80410022145
:1043F00000910DF1060100F008F800B11CBDBDF8F8
:10440000041009BA090C21801CBD2DE9F0410326D6
:1044100098B31D468BB390460F46044600F04CF807
:1044200008B1032629E0218960680022FDF751FACE
:104430007FB1B8F1000F0CD02068394642466423A2
:10444000FDF7F4FF28B1218960680122FDF741FAE8
:10445000E7E7069E28463146FCF77EF820682946A5
:1044600032466423FDF740FF064660682189012239
:10447000FDF72FFA002E18BF03263046BDE8F08165
:10448000C0B110B50446018AC0680022FDF721FAC8
:104490000A20FDF72BF9218AE0680122FDF719FABD
:1044A0000A20FDF723F9204600F006F8002818BF7F
:1044B000032010BD03207047B0B50446FDF70EFA87
:1044C0000546218B6069FDF7FFF9012808D1FDF74A
:1044D00005FA401B632805D80120FDF707F9F0E72E
:1044E0000020B0BD0320B0BDF8B510B31D46164680
:1044F0000F460446FFF7E0FFD8B921896068002223
:10450000FDF7E7F93FB136B12068394632466423FA
:10451000FDF78CFF40B975B1069A62B12068294653
:104520006423FDF783FF30B1218960680122FDF724
:10453000D0F90320F8BD218960680122FDF7C9F98F
:104540000020F8BD7FB50446FFF79AFF10B105467D
:104550004FA041E02046002100F080FA10B105464E
:1045600051A039E03220FDF7C1F82046012100F0CA
:1045700075FA10B1054654A02EE04FF47A70FDF79D
:10458000B5F82046FFF7D9FE10B1054655A023E047
:1045900020467C21FFF78CFE10B1054659A01BE098
:1045A00020464FF4EB714FF4FF72FFF7A1FE10B1FC
:1045B0000546594810E0594803A90390204600F0E9
:1045C000FBF910B10546564806E02046382100F0B8
:1045D000E8F930B105465348FBF7A8FF284604B078
:1045E00070BD2046002100F006FA05460028F5D1EE
:1045F0002046012100F0F0F905460028EED14A4E90
:104600002046314600F006FA05460028E6D17748F4
:1046100002A90290204600F05AF905460028DDD193
:1046200020461621042200F031FA05460028D5D193
:1046300020460121042200F04EFA10B105463B4805
:10464000CAE72046FFF75BFE10B105463848C3E7CE
:10465000002040F2032140F2032200230090204674
:1046600000F005F905460028B8D1204600210022B7
:1046700000F0ECF805460028B0D1204640F2FF31AA
:10468000FFF769FE2B483146FBF7B6FD0025A5E78D
:104690004C4C4343363820726573657420666169FB
:1046A0006C6564210D0000004C4C43433638207388
:1046B00065742053544442595F5243206661696CCB
:1046C0006564210D000000004C4C434336382073D4
:1046D0006574207374616E646279206661696C65CB
:1046E00064210D004C4C4343363820636C65617285
:1046F000206572726F7273206661696C6564210D4A
:10470000000000004C4C434336382063616C206647
:1047100061696C6564210D00355D000803050001C9
:104720001A5D0008D95C0008A0420B1CF15C00086F
:104730004F5D00089B5C00082DE9FF41DFF8A88071
:10474000054600200F4601211C46164688F8000049
:104750008DF80A000820ADF80C108DF80B20ADF88C
:104760000800284600F0A6F8D0BB2846012100F03A
:1047700033F9A8BB02A9284600F0DDF880BB1B482E
:1047800001A90190284600F0A2F848BB2846002164
:104790003A46334600F0C8F910BB2846214600F0DF
:1047A0006CF9E8B912A0FBF7C1FEFDF797F80546D2
:1047B00098F8000040B9FDF791F8401BA04208D8D6
:1047C0000120FCF793FFF3E70CA0FBF7AFFE0020FE
:1047D00006E0002088F800000DA0FBF7A7FE0320EC
:1047E00004B0BDE8F08100BFE20000200904010030
:1047F00073656E64696E672E2E2E0D0053656E74A0
:1048000020636F6D706C65746564210D000000009D
:1048100053656E642074696D656F75742E2E2E213C
:104820000D0000001CB5144600228DF80610090A80
:1048300000938DF807201D228DF8051001A923464D
:104840008DF804200422FFF7E0FD1CBDE0B58DF8D3
:1048500006108F218DF80720032200238DF8051004
:10486000002100910DF10501FFF73EFE8CBD1FB543
:1048700008248DF80910090A8DF80D301B0A8DF8EF
:104880000B20120A8DF80740069C8DF808100021B5
:104890008DF80C308DF80A200922002300910DF1CB
:1048A00007018DF80F40240A8DF80E40FFF71CFE1B
:1048B00004B010BDE0B5C121012200238DF807101E
:1048C000002100910DF10701FFF70EFE8CBDBFB571
:1048D000044648780D46042805D005280AD12978D1
:1048E0000B2905D007E0297801F0FE020A2A02D13F
:1048F00001201EE029788DF80D008B208DF80C101A
:10490000E978052200238DF80B00A8788DF80E00B9
:1049100001F001000DF10B018DF80F000020009057
:104920002046FFF7E1FD20B96A782046012100F01A
:10493000D2F804B0B0BD7FB504468C200D460026E9
:10494000072200238DF80900D1F80200039008889F
:104950000DF10901009600BA000CADF80A002046DE
:10496000FFF7C2FDD8B902AA204640F236710123F2
:104970008DF80860FFF756FF88B99DF80810687930
:10498000012301F0FB020028204608BF41F0040289
:104990008DF8082040F2367102AA00F0D4F804B075
:1049A00070BDE0B58DF807100DF1070240F6E70184
:1049B000012300F0C8F88CBDF8B5096895220023E2
:1049C0008DF80B2005220391002100910DF10B01C0
:1049D000FFF78AFD04B080BDE0B58DF807108A218D
:1049E000022200238DF80610002100910DF106012E
:1049F000FFF77AFD8CBDE0B58DF8071096210222F5
:104A000000238DF80610002100910DF10601FFF73B
:104A10006BFD8CBD10B504460846FFF7AFFC0146A0
:104A20002046BDE81040AFF30080F8B586228DF82F
:104A30000F1000238DF80B200A0A8DF80E200A0CA7
:104A4000090E8DF80C1000218DF80D200522009123
:104A50000DF10B01FFF748FD04B080BDE0B58DF806
:104A600007108021022200238DF8061000210091FA
:104A70000DF10601FFF738FD8CBD0022B2EB914F1E
:104A80001CBF02207047890100F011B8E0B58DF815
:104A900006108E218DF80720032200238DF80510C3
:104AA000002100910DF10501FFF71EFD8CBDE0B561
:104AB00083228DF8071000238DF804200A0A090CC0
:104AC0008DF8051000218DF806200422009101A91F
:104AD000FFF70AFD8CBD7CB50446002015460E4646
:104AE0000DF1070240F6890101238DF807002046E9
:104AF000FFF798FE00B17CBD012E06D19DF807009E
:104B0000062D04D100F0FB0003E09DF8070040F003
:104B100004008DF807000DF10702204640F68901D8
:104B2000012300F010F87CBD1CB514468DF8071069
:104B30000E21009302228DF806100DF10601234686
:104B4000FFF7D2FC1CBD1CB514460D228DF80710D2
:104B5000090A00938DF805208DF806100DF1050166
:104B600003222346FFF7C0FC1CBDFCF7B1FFFEF794
:104B700010FDFEF7EDFAFEF7D3FAFEF7C3FBFEF7E2
:104B800025FCFEF73FFCFEF797FAFEF77BFBFEF7EE
:104B900097FBFFF7E7F8FEE7B0B5414840F6E4447D
:104BA00040F6FF7100886043B0FBF1F5A8B200F059
:104BB000BDFD0B4900F0CEFD00F080FD611B002221
:104BC000B0FBF1F0074902F10C04B42C05D08D586C
:104BD0000A4493882246A842F5D398B2B0BD00BFDC
:104BE00000401C46D85900087047000010B520B19D
:104BF000024620480378072B02D94FF0FF3010BD42
:104C00005C1C03EB4303047000EB83030020C3E947
:104C10000121D86010BD00BF164800210022602A83
:104C200005D083180C32C3E90111D960F7E70021E0
:104C3000017070470F4D05F10C080027FCF74EFE80
:104C4000044646462878874212D256F8040C40B1F2
:104C50003168611A814208D356F8080C34608047E5
:104C600003E056F8080C804734600C360137E9E75A
:104C700030BFE2E7E800002009480A4A418840F6D0
:104C8000E4404143914284BF0020704740F6FF72E8
:104C9000B1FBF2F1401A212180B2B0FBF1F0704774
:104CA000900000201B33CE0070475FEA400C08BF25
:104CB00091F0000F4FEA8C234FEAC12243EA515191
:104CC0004FEA1C5018BF00F5F0404FEA300018BF03
:104CD00041F000415FEA6C5C00F02980BCF1FF3FCD
:104CE00008BF40F080407047130C06BF12044FF01D
:104CF000100C4FF0000C130E04BF12020CF1080C44
:104D0000130F04BF12010CF1040C930F04BF9200A7
:104D10000CF1020CD30F04BF52000CF1010C114630
:104D20004FF00002A0F11F00A0EB0C00704711F043
:104D3000004F08BF704731F000413FF4D5AF0B0C76
:104D400006BF09044FF0100C4FF0000C0B0E04BF0F
:104D500009020CF1080C0B0F04BF09010CF1040C43
:104D60008B0F04BF89000CF1020CCB0F04BF49006C
:104D70000CF1010CCCF1200322FA03F341EA030108
:104D800002FA0CF2A0EB0C0000F10100704723F0D6
:104D90007F4720F07F4C80EA030000F00040ACEB3E
:104DA000070303F57C5303F1FF032DE9804909B4A0
:104DB0004FEA144324EA03484FEA154B25EA0B4E09
:104DC0000FF2042606EB13273E7803FB0667C7F5B0
:104DD000000707FB06F64FEAD64606F102064FEA41
:104DE000543707FB066CCCF1005C4FEA1C472CEAF9
:104DF000074C0CFB06F507FB06F404EB15464FEADF
:104E0000961649085FEA320234BF00204FF0004096
:104E10004FEAD13706FB07FC4FEA1C4C0CFB0BF7A3
:104E2000D21B03FB0CF761EB07010CFB0EF7B0EB99
:104E3000074072EB17420CFB08F734BFA2EB0742A6
:104E4000B2EB074261EB17414FEA0C444FEA91077E
:104E500006FB07FC4FEA1C4C0CFB0BF7B0EBC74002
:104E600072EB573203FB0CF734BFA2EBC742B2EB35
:104E7000C74261EB57310CFB0EF7B0EBC70072EB8A
:104E800057720CFB08F734BFA2EBC702B2EBC702A4
:104E900061EB57714FEA816141EA92114FEA8262F8
:104EA00042EA90124FEA806004EBCC04039F4FEA81
:104EB000D13706FB07FC4FEA1C4C0CFB0BF7D21B4F
:104EC00003FB0CF761EB07010CFB0EF7B0EB07409F
:104ED00072EB17420CFB08F734BFA2EB0742B2EBB0
:104EE000074261EB17414FEA8C5504EB9C244FEAD3
:104EF000910706FB07FC4FEA1C4C0CFB0BF7B0EBD1
:104F0000C74072EB573203FB0CF734BFA2EBC7422A
:104F1000B2EBC74261EB57310CFB0EF7B0EBC700A9
:104F200072EB57720CFB08F734BFA2EBC702B2EB6F
:104F3000C70261EB57714FEA816141EA92114FEA72
:104F4000826242EA90124FEA806015EB4C2544F1F0
:104F500000044FEAD13706FB07FC4FEA1C4C0CFB60
:104F60000BF7D21B03FB0CF761EB07010CFB0EF7F1
:104F7000B0EB074072EB17420CFB08F734BFA2EB13
:104F80000742B2EB074261EB17414FEA813141EA38
:104F900092414FEA823242EA90424FEA80304FEA31
:104FA0000C7615EB1C1544F1000448EA03434EEA65
:104FB0000B484FF0000EB2EB080C71EB030724BF57
:104FC000624639464EEB0E0E4FF0000B0018524170
:104FD00049414BEB0B0BB2EB080C71EB03077BF178
:104FE000000B24BF624639464EEB0E0E4FF0000B0D
:104FF0000018524149414BEB0B0BB2EB080C71EB23
:1050000003077BF1000B24BF624639464EEB0E0EC0
:1050100051EA020718BF46F0010616EB0E7655F16D
:10502000000254F1000103D5BDE88901BDE8008804
:10503000BDE88901BDE80048B619524141EB0101C4
:10504000A3F10103704780807F7E7D7C7B7A797835
:10505000777676757473727171706F6E6E6D6C6C3D
:105060006B6A6A69686867666665646463636261DF
:105070006160605F5F5E5E5D5D5C5C5B5B5A5A5960
:1050800059585857575656555555545453535252CC
:105090005251515050504F4F4F4E4E4D4D4D4C4C24
:1050A0004C4B4B4B4A4A4A4949494848484747476D
:1050B00047464646454545444444444343434342AA
:1050C0004242424141419C46002B30D477002BD0D4
:1050D0004FEA37071CB503B44FF010004FF0100132
:1050E000BAF1000F06D0BCF1000FDCBF40F00800A1
:1050F00040F008014FF000000FBCBDE810400BF17C
:10510000010BBBF1010F08BF5FEA170722BF12F1C5
:10511000010211F101014FF0004143F1000300F0E1
:10512000004043EA00007047F9D35708D0E746EA49
:1051300006464FEA164613F1400F1FDD13F1200F0C
:10514000DFBF16430A46002120335B42BED0C3F1C5
:10515000200746EA06464FEA164602FA07F746EAED
:10516000070622FA03F2C3F1200701FA07F742EA21
:10517000070221FA03F14FF00003A7E746EA02060F
:1051800046EA06464FEA164646EA0106BCBF46EA2C
:105190000646360C4FF000034FF000024FF00001BE
:1051A00094E72DE9804C70B49A46934691E8380014
:1051B00007C831EA400C48BF34EA430C03D5FFF777
:1051C000E6FDFFF780FFF0BCBDE8008C2DE9804CC8
:1051D00070B49A46934691E8380007C810F0804FA3
:1051E00008BF13F0804F03D100F005F8FFF76BFF05
:1051F000F0BCBDE8008C20F07F4723F07F4C80EAB4
:10520000030000F0004007EB0C03A3F57C53A3F16F
:10521000FE0392F0000F00F0B38095F0000F00F055
:1052200077802DE901494FEA114021EA00484FEA11
:10523000144624EA064700FB06FC08FB06F607FBBB
:1052400008F818EB06484CEB164C00FB07F718EB78
:1052500007484CEB17404FEA124B22EA0B4E4FEA3D
:10526000154625EA06470BFB06FC0EFB06F607FB78
:105270000EFE1EEB064E4CEB164C0BFB07F71EEB1F
:10528000074E4CEB174B18EB0B0840F1000018EBE6
:105290000E0B58EB000840F100008F1A4FF0000190
:1052A0004FF000063CBFC943661B14BFB5EB040CAE
:1052B00000213CBFC943F61B4FEA174427EA0445C7
:1052C0004FEA1C472CEA074C04FB076205FB07F773
:1052D0000CFB05F616EB074642EB174204FB0CFCF1
:1052E00016EB0C4642EB1C421BEB060658EB020287
:1052F00041414EEA8E0E46EA9E0601D5BDE801897F
:10530000B619524141EB0101A3F10103BDE8018946
:105310004FEA144524EA05464FEA114721EA074CB3
:1053200005FB07F406FB07F70CFB06F111EB074141
:1053300044EB174405FB0CFC11EB0C4144EB1C4403
:105340004FEA124722EA074C05FB07F206FB07F774
:105350000CFB06F616EB074642EB174205FB0CFC6E
:1053600016EB0C4642EB1C456A1854F1000148BF8D
:105370007047B619524141EB0101A3F10103704797
:1053800095F0000F37D04FEA114221EA02464FEA6A
:10539000144724EA074C02FB07F106FB07F70CFB56
:1053A00006F414EB074441EB174102FB0CFC14EB31
:1053B0000C4441EB1C414FEA154725EA074C02FB20
:1053C00007F506FB07F70CFB06F616EB074645EB61
:1053D000174502FB0CFC16EB0C4645EB1C42121960
:1053E00051F1000148BF7047B619524141EB01012C
:1053F000A3F1010370474FEA144524EA05464FEA3A
:10540000114721EA074C05FB07F106FB07F70CFBE8
:1054100006F212EB074241EB174105FB0CFC12EBC5
:105420000C4251EB1C414FF0000648BF70479218E8
:1054300041EB0101A3F101037047490050EAC1208B
:1054400018BF04204A0D18BF40F0010040F2FF725F
:10545000B2EB515F08BF40F00200012808BF0520F1
:10546000704730380A2801D2012070470020704769
:1054700010B500290AD00878002807D005487844DC
:10548000FBF790FC002801D0002010BD02487844B2
:1054900010BD00000E090000060900000808A0F574
:1054A00000114FEA3101704743004FEAD30C4FEA35
:1054B0003C0C43401FBF40070CF1605113F0FE4FFE
:1054C00070471CF0006F03D10CF0004100207047C2
:1054D0000CF0004343EA507040EACC0010B500F0F5
:1054E000BAF900BF000000924FEA0001FFF7D6BFF3
:1054F0004FF00041A1F500214FF00000704700007F
:105500004FF47F0C1CEAD0121EBF1CEAD11392EAA2
:105510000C0F93EA0C0F00F0858090EA010F48BF52
:1055200042F4807240F4000C41F400002CF07F4102
:1055300020F07F4000B5A2EB030281420FF2081C6D
:10554000ACEB504E9EF800E0C0F100004FEA4E0E6A
:1055500000FB0EFC38BF49004FEA2C1C0CFB0EF37D
:105560004FEACE1E0EEB635E4FEA112C0EFB0CFCD5
:105570004FEAC1214FEA1C5300FB031102F5FA0266
:105580004FEA112C0EFB0CFC4FEA01314FEADC4CC8
:1055900000FB0C1142EB2242C14228BF09184CEB20
:1055A00003335DF804EB10EB410143EBC250B2F55D
:1055B0007C0F38BF704729D512F0F00F1CBF00F1E7
:1055C000C04000F000407047008182838485868758
:1055D00088898B8C8D8E8F919293959697999A9CB2
:1055E0009D9FA0A2A3A5A7A8AAACAEB0B2B3B5B721
:1055F000B9BCBEC0C2C5C7C9CCCED1D4D7D9DCDFF7
:10560000E2E6E9ECF0F3F7FAFE0000004FEA400CA6
:105610000CF1807CBCF17E4F28BF7047B0F1C040D8
:1056200000F05FB90CEAD11390EA010F48BF42F4D1
:105630008072624538BF634507D213F47F0F16D0DE
:1056400080EA010000F00040704710B500F003F957
:10565000097EFC3E00F005B880EA010000F0004041
:10566000704780EA010000F0004000F03AB912F4FF
:105670007F0F04BF0248704780EA010000F031B993
:105680000000C07F41000B0ED3F19E0208D950F4F8
:1056900000034FEA032323FA02F048BF4042704759
:1056A00010B500F0D8F800BF499224800020704760
:1056B0006FF0004282EA200070470000C10DD1F176
:1056C0009E0206DB4FEA002343F0004323FA02F078
:1056D0007047004207D54FEA4001B1F1FE4F02D2B8
:1056E0004FF00000704710B500F0B5F849922480E3
:1056F000002070476FEA20007047000010F0004162
:1057000048BF4042B0FA80F310FA03F2C3F19D03A0
:105710000BD051EAC35101EB1220530638BF70473A
:1057200000F1010008BF20F001007047B0FA80F3DB
:1057300010FA03F2C3F19D030AD0D90501EB122040
:10574000530638BF704700F1010008BF20F0010088
:10575000704700004FF47F0C1CEAD0121EBF1CEAF9
:10576000D11392EA0C0F93EA0C0F00F0478090EAF5
:10577000010F48BF42F480724FF0004C4CEA002009
:105780004CEA012102EB0302A0FB0113A2F5000287
:10579000002918BF43F001035B0028BF4FEA330321
:1057A00042EB22425FEA132C4CEBC2502EBFBCEB03
:1057B000436FB2F57C0F70474FEA036CBCF1004FAA
:1057C00008BF20F00100B2F57C0F38BF70470BD541
:1057D00082F0FF0212F5803FC8BF704700F1C04061
:1057E000D8BF00F00040704700F5000C5FEA4C0C99
:1057F00048BF7047B0F1C04000F073B80CEAD11355
:1058000090EA010F48BF42F48072624538BF634599
:1058100004D280EA010000F00040704710B500F0AB
:105820001AF800BF8900013E00F007B800F009B87F
:105830005FEA410C5FEA1C6C08D080EA010000F0CE
:1058400050B85FEA400C5FEA1C6CF6D14FF00040A4
:10585000A0F5800070470EF1020E2EF0030E5EF8E8
:10586000044B244204D44FEA4102B2F17F4F11D8D5
:105870004FEA4003B3F17F4F0CD80ED14FEAD07CF2
:105880000CEB4C0C0CF1020CB2F17F4F08BF4CEB4F
:10589000D17C04E04FF0080C01E04FEAD17C0CEB26
:1058A0004C0324FA03F404F00704B4F1040C06D208
:1058B0000EEB840CBDE810404CF0010C6047DFE8B3
:1058C0000CF0070802024FF00040A0F5800010BD68
:1058D0000846420018BFD2F1807288BF00F0004035
:1058E00010BDFF2141EAD050C0057047FAF7B1BFA3
:1058F0003031323334353637383941424344454606
:1059000040305800303132333435363738396162FF
:105910006364656640307800040000080000000001
:105920000000000200010000100000000240000022
:10593000000000A00000000005400000000000C8BA
:10594000000000000C4000000000409C000000002F
:10595000194000000020BCBE0000000034400000E0
:10596000BFC91B8E00000004B5400000504BCFD0D3
:105970006607E2CF010000006C4100003E8251AAA0
:10598000DFEEA73401000000D9420000DCB5A0E240
:105990003A301F97FFFFFFFFB4450000FD25A0C868
:1059A000E9A3C14FFFFFFFFFFF3F000000000080A1
:1059B00000000000FF3F0000000000800000000029
:1059C00000000000000000000102030406070809AF
:1059D0000000000001020304A08601000000000096
:1059E000475C00087011010001000000D55B000851
:1059F00050C3000001000000545C0008409C0000FF
:105A0000010000008E5C00083075000002000000FC
:105A1000375C0008204E0000040000002A5C0008EB
:105A2000983A000005000000105C000810270000F4
:105A30000A000000F65B0008581B0000110000007F
:105A4000035C0008881300001D000000615C000872
:105A5000A00F00002D0000001D5C0008B80B000026
:105A600044000000815C0008D00700007C000000BA
:105A70006E5C0008E80300005E010000E25B0008C5
:105A80003D3D3D3D3D3D3D3D3D3D3D3D3D3D3D3D46
:105A90003D3D3D3D3D3D3D3D3D3D3D3D3D3D3D3D36
:105AA0003D3D3D3D3D3D3D3D0D0A0D000D0A3D3D59
:105AB0003D3D3D3D3D3D3D3D3D3D3D3D3D3D3D3D16
:105AC0003D3D3D3D3D3D3D3D3D3D3D3D3D3D3D3D06
:105AD0003D3D3D3D3D3D0D0020E9A1B9E79BAEE6D2
